{
  "contractName": "EscrowPayment",
  "abi": [
    {
      "inputs": [
        {
          "internalType": "address",
          "name": "payer",
          "type": "address"
        },
        {
          "internalType": "address payable",
          "name": "payee",
          "type": "address"
        },
        {
          "internalType": "uint256",
          "name": "_amount",
          "type": "uint256"
        }
      ],
      "stateMutability": "nonpayable",
      "type": "constructor"
    },
    {
      "inputs": [],
      "name": "amount",
      "outputs": [
        {
          "internalType": "uint256",
          "name": "",
          "type": "uint256"
        }
      ],
      "stateMutability": "view",
      "type": "function",
      "constant": true
    },
    {
      "inputs": [],
      "name": "lawyerAddress",
      "outputs": [
        {
          "internalType": "address",
          "name": "",
          "type": "address"
        }
      ],
      "stateMutability": "view",
      "type": "function",
      "constant": true
    },
    {
      "inputs": [],
      "name": "payeeAddress",
      "outputs": [
        {
          "internalType": "address payable",
          "name": "",
          "type": "address"
        }
      ],
      "stateMutability": "view",
      "type": "function",
      "constant": true
    },
    {
      "inputs": [],
      "name": "payerAddress",
      "outputs": [
        {
          "internalType": "address",
          "name": "",
          "type": "address"
        }
      ],
      "stateMutability": "view",
      "type": "function",
      "constant": true
    },
    {
      "inputs": [],
      "name": "deposit",
      "outputs": [],
      "stateMutability": "payable",
      "type": "function",
      "payable": true
    },
    {
      "inputs": [],
      "name": "release",
      "outputs": [],
      "stateMutability": "nonpayable",
      "type": "function"
    },
    {
      "inputs": [],
      "name": "getBalance",
      "outputs": [
        {
          "internalType": "uint256",
          "name": "",
          "type": "uint256"
        }
      ],
      "stateMutability": "view",
      "type": "function",
      "constant": true
    }
  ],
  "bytecode": "0x608060405234801561001057600080fd5b50604051610926380380610926833981810160405281019061003291906101da565b826000806101000a81548173ffffffffffffffffffffffffffffffffffffffff021916908373ffffffffffffffffffffffffffffffffffffffff16021790555081600160006101000a81548173ffffffffffffffffffffffffffffffffffffffff021916908373ffffffffffffffffffffffffffffffffffffffff16021790555033600260006101000a81548173ffffffffffffffffffffffffffffffffffffffff021916908373ffffffffffffffffffffffffffffffffffffffff1602179055508060038190555050505061022d565b600080fd5b600073ffffffffffffffffffffffffffffffffffffffff82169050919050565b600061013382610108565b9050919050565b61014381610128565b811461014e57600080fd5b50565b6000815190506101608161013a565b92915050565b600061017182610108565b9050919050565b61018181610166565b811461018c57600080fd5b50565b60008151905061019e81610178565b92915050565b6000819050919050565b6101b7816101a4565b81146101c257600080fd5b50565b6000815190506101d4816101ae565b92915050565b6000806000606084860312156101f3576101f2610103565b5b600061020186828701610151565b93505060206102128682870161018f565b9250506040610223868287016101c5565b9150509250925092565b6106ea8061023c6000396000f3fe6080604052600436106100705760003560e01c806386d1a69f1161004e57806386d1a69f146100f657806390dc61b41461010d578063aa8c217c14610138578063d0e30db01461016357610070565b806312065fe0146100755780632b2f1e14146100a057806333cede13146100cb575b600080fd5b34801561008157600080fd5b5061008a61016d565b604051610097919061041a565b60405180910390f35b3480156100ac57600080fd5b506100b5610175565b6040516100c29190610476565b60405180910390f35b3480156100d757600080fd5b506100e0610199565b6040516100ed91906104b2565b60405180910390f35b34801561010257600080fd5b5061010b6101bf565b005b34801561011957600080fd5b50610122610300565b60405161012f9190610476565b60405180910390f35b34801561014457600080fd5b5061014d610326565b60405161015a919061041a565b60405180910390f35b61016b61032c565b005b600047905090565b60008054906101000a900473ffffffffffffffffffffffffffffffffffffffff1681565b600160009054906101000a900473ffffffffffffffffffffffffffffffffffffffff1681565b6003544714610203576040517f08c379a00000000000000000000000000000000000000000000000000000000081526004016101fa9061052a565b60405180910390fd5b600260009054906101000a900473ffffffffffffffffffffffffffffffffffffffff1673ffffffffffffffffffffffffffffffffffffffff163373ffffffffffffffffffffffffffffffffffffffff1614610293576040517f08c379a000000000000000000000000000000000000000000000000000000000815260040161028a906105bc565b60405180910390fd5b600160009054906101000a900473ffffffffffffffffffffffffffffffffffffffff1673ffffffffffffffffffffffffffffffffffffffff166108fc6003549081150290604051600060405180830381858888f193505050501580156102fd573d6000803e3d6000fd5b50565b600260009054906101000a900473ffffffffffffffffffffffffffffffffffffffff1681565b60035481565b60008054906101000a900473ffffffffffffffffffffffffffffffffffffffff1673ffffffffffffffffffffffffffffffffffffffff163373ffffffffffffffffffffffffffffffffffffffff16146103ba576040517f08c379a00000000000000000000000000000000000000000000000000000000081526004016103b190610628565b60405180910390fd5b6003544711156103ff576040517f08c379a00000000000000000000000000000000000000000000000000000000081526004016103f690610694565b60405180910390fd5b565b6000819050919050565b61041481610401565b82525050565b600060208201905061042f600083018461040b565b92915050565b600073ffffffffffffffffffffffffffffffffffffffff82169050919050565b600061046082610435565b9050919050565b61047081610455565b82525050565b600060208201905061048b6000830184610467565b92915050565b600061049c82610435565b9050919050565b6104ac81610491565b82525050565b60006020820190506104c760008301846104a3565b92915050565b600082825260208201905092915050565b7f457363726f77206e6f742066756e646564000000000000000000000000000000600082015250565b60006105146011836104cd565b915061051f826104de565b602082019050919050565b6000602082019050818103600083015261054381610507565b9050919050565b7f4f6e6c79206c61777965722063616e2072656c65617365207468652066756e6460008201527f7300000000000000000000000000000000000000000000000000000000000000602082015250565b60006105a66021836104cd565b91506105b18261054a565b604082019050919050565b600060208201905081810360008301526105d581610599565b9050919050565b7f53656e646572206d757374206265207468652070617965720000000000000000600082015250565b60006106126018836104cd565b915061061d826105dc565b602082019050919050565b6000602082019050818103600083015261064181610605565b9050919050565b7f42616c616e636520746f6f206869676800000000000000000000000000000000600082015250565b600061067e6010836104cd565b915061068982610648565b602082019050919050565b600060208201905081810360008301526106ad81610671565b905091905056fea264697066735822122070d412377437a74cc86b0b96b9445b6235d65d27c5f698bde983ee510e2603e764736f6c634300080b0033",
  "immutableReferences": {},
  "source": "// SPDX-License-Identifier: MIT\npragma solidity >=0.4.22 <0.9.0;\n\ncontract EscrowPayment {\n  address public payerAddress;\n  address payable public payeeAddress;\n  address public lawyerAddress;\n  uint public amount;\n\n  constructor(address payer, address payable payee, uint _amount) {\n    payerAddress = payer;\n    payeeAddress = payee;\n    lawyerAddress = msg.sender;\n    amount = _amount;\n  }\n\n  function deposit() payable public {\n    require(msg.sender == payerAddress, 'Sender must be the payer');\n    require(address(this).balance <= amount, 'Balance too high');\n  }\n\n  function release() public {\n    require(address(this).balance == amount, 'Escrow not funded');\n    require(msg.sender == lawyerAddress, 'Only lawyer can release the funds');\n    payeeAddress.transfer(amount);\n  }\n\n  function getBalance() view public returns(uint) {\n    return address(this).balance;\n  }\n}\n",
  "sourcePath": "/var/www/html/dapp30/escrow/contracts/EscrowPayment.sol",
  "compiler": {
    "name": "solc",
    "version": "0.8.11+commit.d7f03943.Emscripten.clang"
  },
  "schemaVersion": "3.4.4",
  "updatedAt": "2022-05-20T11:39:46.976Z",
  "networkType": "ethereum",
  "devdoc": {
    "kind": "dev",
    "methods": {},
    "version": 1
  },
  "userdoc": {
    "kind": "user",
    "methods": {},
    "version": 1
  }
}